{"project/contracts/AIAgent.sol":{"AIAgent":{"abi":[{"inputs":[],"stateMutability":"nonpayable","type":"constructor"},{"anonymous":false,"inputs":[{"indexed":true,"internalType":"uint256","name":"tokenId","type":"uint256"},{"indexed":false,"internalType":"uint256","name":"newExperience","type":"uint256"}],"name":"AgentGrew","type":"event"},{"anonymous":false,"inputs":[{"indexed":true,"internalType":"uint256","name":"tokenId","type":"uint256"},{"indexed":false,"internalType":"string","name":"name","type":"string"},{"indexed":false,"internalType":"string","name":"persona","type":"string"}],"name":"AgentMinted","type":"event"},{"anonymous":false,"inputs":[{"indexed":true,"internalType":"address","name":"from","type":"address"},{"indexed":true,"internalType":"address","name":"to","type":"address"},{"indexed":true,"internalType":"uint256","name":"tokenId","type":"uint256"}],"name":"Transfer","type":"event"},{"inputs":[{"internalType":"address","name":"","type":"address"}],"name":"balanceOf","outputs":[{"internalType":"uint256","name":"","type":"uint256"}],"stateMutability":"view","type":"function"},{"inputs":[{"internalType":"uint256","name":"","type":"uint256"}],"name":"birthCertificates","outputs":[{"internalType":"string","name":"name","type":"string"},{"internalType":"string","name":"persona","type":"string"},{"internalType":"uint256","name":"birthTimestamp","type":"uint256"},{"internalType":"uint256","name":"experience","type":"uint256"},{"internalType":"string","name":"vanityNumber","type":"string"}],"stateMutability":"view","type":"function"},{"inputs":[{"internalType":"uint256","name":"tokenId","type":"uint256"}],"name":"getBirthCertificate","outputs":[{"components":[{"internalType":"string","name":"name","type":"string"},{"internalType":"string","name":"persona","type":"string"},{"internalType":"uint256","name":"birthTimestamp","type":"uint256"},{"internalType":"uint256","name":"experience","type":"uint256"},{"internalType":"string","name":"vanityNumber","type":"string"}],"internalType":"struct AIAgent.BirthCertificate","name":"","type":"tuple"}],"stateMutability":"view","type":"function"},{"inputs":[{"internalType":"uint256","name":"tokenId","type":"uint256"},{"internalType":"uint256","name":"interactionPoints","type":"uint256"}],"name":"growAgent","outputs":[],"stateMutability":"nonpayable","type":"function"},{"inputs":[{"internalType":"address","name":"to","type":"address"},{"internalType":"string","name":"name","type":"string"},{"internalType":"string","name":"persona","type":"string"},{"internalType":"string","name":"vanityNumber","type":"string"}],"name":"mintAgent","outputs":[{"internalType":"uint256","name":"","type":"uint256"}],"stateMutability":"nonpayable","type":"function"},{"inputs":[],"name":"owner","outputs":[{"internalType":"address","name":"","type":"address"}],"stateMutability":"view","type":"function"},{"inputs":[{"internalType":"uint256","name":"","type":"uint256"}],"name":"ownerOf","outputs":[{"internalType":"address","name":"","type":"address"}],"stateMutability":"view","type":"function"}],"evm":{"bytecode":{"linkReferences":{},"object":"608060405234801561001057600080fd5b50600180546001600160a01b03191633179055610c92806100326000396000f3fe608060405234801561001057600080fd5b506004361061007d5760003560e01c806370a082311161005b57806370a08231146101095780638da5cb5b14610129578063c1c5b2651461013c578063e13b34621461015157600080fd5b806329966eee1461008257806348b326fb146100a85780636352211e146100c8575b600080fd5b6100956100903660046108a4565b610175565b6040519081526020015b60405180910390f35b6100bb6100b636600461093d565b610320565b60405161009f919061099c565b6100f16100d636600461093d565b6003602052600090815260409020546001600160a01b031681565b6040516001600160a01b03909116815260200161009f565b610095610117366004610a11565b60046020526000908152604090205481565b6001546100f1906001600160a01b031681565b61014f61014a366004610a33565b61053b565b005b61016461015f36600461093d565b61061f565b60405161009f959493929190610a55565b6001546000906001600160a01b031633146101c35760405162461bcd60e51b81526020600482015260096024820152682737ba1037bbb732b960b91b60448201526064015b60405180910390fd5b60008054908190806101d483610abc565b9091555050600081815260036020908152604080832080546001600160a01b0319166001600160a01b038b1690811790915583526004909152812080549161021b83610abc565b90915550506040805160a0810182528681526020808201879052428284015260006060830181905260808301879052848152600290915291909120815181906102649082610b5e565b50602082015160018201906102799082610b5e565b506040820151600282015560608201516003820155608082015160048201906102a29082610b5e565b50506040518291506001600160a01b038816906000907fddf252ad1be2c89b69c2b068fc378daa952ba7f163c4a11628f55a4df523b3ef908290a4807f2e241eb9612c5fd37b216f3ee5f372cac286b893d2f71e5ad535841cd9e5da68868660405161030f929190610c1e565b60405180910390a295945050505050565b6103526040518060a0016040528060608152602001606081526020016000815260200160008152602001606081525090565b60008281526002602052604090819020815160a0810190925280548290829061037a90610ad5565b80601f01602080910402602001604051908101604052809291908181526020018280546103a690610ad5565b80156103f35780601f106103c8576101008083540402835291602001916103f3565b820191906000526020600020905b8154815290600101906020018083116103d657829003601f168201915b5050505050815260200160018201805461040c90610ad5565b80601f016020809104026020016040519081016040528092919081815260200182805461043890610ad5565b80156104855780601f1061045a57610100808354040283529160200191610485565b820191906000526020600020905b81548152906001019060200180831161046857829003601f168201915b5050505050815260200160028201548152602001600382015481526020016004820180546104b290610ad5565b80601f01602080910402602001604051908101604052809291908181526020018280546104de90610ad5565b801561052b5780601f106105005761010080835404028352916020019161052b565b820191906000526020600020905b81548152906001019060200180831161050e57829003601f168201915b5050505050815250509050919050565b6000828152600360205260409020546001600160a01b031633148061056a57506001546001600160a01b031633145b6105a75760405162461bcd60e51b815260206004820152600e60248201526d139bdd08185d5d1a1bdc9a5e995960921b60448201526064016101ba565b600082815260026020526040812060030180548392906105c8908490610c43565b90915550506000828152600260205260409081902060030154905183917f2804993a562d1d387dca549dcdfd29d14b9629ae3b70ce0b696bd6e0d926a03d9161061391815260200190565b60405180910390a25050565b60026020526000908152604090208054819061063a90610ad5565b80601f016020809104026020016040519081016040528092919081815260200182805461066690610ad5565b80156106b35780601f10610688576101008083540402835291602001916106b3565b820191906000526020600020905b81548152906001019060200180831161069657829003601f168201915b5050505050908060010180546106c890610ad5565b80601f01602080910402602001604051908101604052809291908181526020018280546106f490610ad5565b80156107415780601f1061071657610100808354040283529160200191610741565b820191906000526020600020905b81548152906001019060200180831161072457829003601f168201915b50505050509080600201549080600301549080600401805461076290610ad5565b80601f016020809104026020016040519081016040528092919081815260200182805461078e90610ad5565b80156107db5780601f106107b0576101008083540402835291602001916107db565b820191906000526020600020905b8154815290600101906020018083116107be57829003601f168201915b5050505050905085565b80356001600160a01b03811681146107fc57600080fd5b919050565b634e487b7160e01b600052604160045260246000fd5b600082601f83011261082857600080fd5b813567ffffffffffffffff8082111561084357610843610801565b604051601f8301601f19908116603f0116810190828211818310171561086b5761086b610801565b8160405283815286602085880101111561088457600080fd5b836020870160208301376000602085830101528094505050505092915050565b600080600080608085870312156108ba57600080fd5b6108c3856107e5565b9350602085013567ffffffffffffffff808211156108e057600080fd5b6108ec88838901610817565b9450604087013591508082111561090257600080fd5b61090e88838901610817565b9350606087013591508082111561092457600080fd5b5061093187828801610817565b91505092959194509250565b60006020828403121561094f57600080fd5b5035919050565b6000815180845260005b8181101561097c57602081850181015186830182015201610960565b506000602082860101526020601f19601f83011685010191505092915050565b602081526000825160a060208401526109b860c0840182610956565b90506020840151601f19808584030160408601526109d68383610956565b9250604086015160608601526060860151608086015260808601519150808584030160a086015250610a088282610956565b95945050505050565b600060208284031215610a2357600080fd5b610a2c826107e5565b9392505050565b60008060408385031215610a4657600080fd5b50508035926020909101359150565b60a081526000610a6860a0830188610956565b8281036020840152610a7a8188610956565b90508560408401528460608401528281036080840152610a9a8185610956565b98975050505050505050565b634e487b7160e01b600052601160045260246000fd5b600060018201610ace57610ace610aa6565b5060010190565b600181811c90821680610ae957607f821691505b602082108103610b0957634e487b7160e01b600052602260045260246000fd5b50919050565b601f821115610b5957600081815260208120601f850160051c81016020861015610b365750805b601f850160051c820191505b81811015610b5557828155600101610b42565b5050505b505050565b815167ffffffffffffffff811115610b7857610b78610801565b610b8c81610b868454610ad5565b84610b0f565b602080601f831160018114610bc15760008415610ba95750858301515b600019600386901b1c1916600185901b178555610b55565b600085815260208120601f198616915b82811015610bf057888601518255948401946001909101908401610bd1565b5085821015610c0e5787850151600019600388901b60f8161c191681555b5050505050600190811b01905550565b604081526000610c316040830185610956565b8281036020840152610a088185610956565b80820180821115610c5657610c56610aa6565b9291505056fea2646970667358221220ac40abff1dd08214f755fe9fbe151d577e55ce8045e5831e1ccdf0dc517fbbe864736f6c63430008130033","opcodes":"PUSH1 0x80 PUSH1 0x40 MSTORE CALLVALUE DUP1 ISZERO PUSH2 0x10 JUMPI PUSH1 0x0 DUP1 REVERT JUMPDEST POP PUSH1 0x1 DUP1 SLOAD PUSH1 0x1 PUSH1 0x1 PUSH1 0xA0 SHL SUB NOT AND CALLER OR SWAP1 SSTORE PUSH2 0xC92 DUP1 PUSH2 0x32 PUSH1 0x0 CODECOPY PUSH1 0x0 RETURN INVALID PUSH1 0x80 PUSH1 0x40 MSTORE CALLVALUE DUP1 ISZERO PUSH2 0x10 JUMPI PUSH1 0x0 DUP1 REVERT JUMPDEST POP PUSH1 0x4 CALLDATASIZE LT PUSH2 0x7D JUMPI PUSH1 0x0 CALLDATALOAD PUSH1 0xE0 SHR DUP1 PUSH4 0x70A08231 GT PUSH2 0x5B JUMPI DUP1 PUSH4 0x70A08231 EQ PUSH2 0x109 JUMPI DUP1 PUSH4 0x8DA5CB5B EQ PUSH2 0x129 JUMPI DUP1 PUSH4 0xC1C5B265 EQ PUSH2 0x13C JUMPI DUP1 PUSH4 0xE13B3462 EQ PUSH2 0x151 JUMPI PUSH1 0x0 DUP1 REVERT JUMPDEST DUP1 PUSH4 0x29966EEE EQ PUSH2 0x82 JUMPI DUP1 PUSH4 0x48B326FB EQ PUSH2 0xA8 JUMPI DUP1 PUSH4 0x6352211E EQ PUSH2 0xC8 JUMPI JUMPDEST PUSH1 0x0 DUP1 REVERT JUMPDEST PUSH2 0x95 PUSH2 0x90 CALLDATASIZE PUSH1 0x4 PUSH2 0x8A4 JUMP JUMPDEST PUSH2 0x175 JUMP JUMPDEST PUSH1 0x40 MLOAD SWAP1 DUP2 MSTORE PUSH1 0x20 ADD JUMPDEST PUSH1 0x40 MLOAD DUP1 SWAP2 SUB SWAP1 RETURN JUMPDEST PUSH2 0xBB PUSH2 0xB6 CALLDATASIZE PUSH1 0x4 PUSH2 0x93D JUMP JUMPDEST PUSH2 0x320 JUMP JUMPDEST PUSH1 0x40 MLOAD PUSH2 0x9F SWAP2 SWAP1 PUSH2 0x99C JUMP JUMPDEST PUSH2 0xF1 PUSH2 0xD6 CALLDATASIZE PUSH1 0x4 PUSH2 0x93D JUMP JUMPDEST PUSH1 0x3 PUSH1 0x20 MSTORE PUSH1 0x0 SWAP1 DUP2 MSTORE PUSH1 0x40 SWAP1 KECCAK256 SLOAD PUSH1 0x1 PUSH1 0x1 PUSH1 0xA0 SHL SUB AND DUP2 JUMP JUMPDEST PUSH1 0x40 MLOAD PUSH1 0x1 PUSH1 0x1 PUSH1 0xA0 SHL SUB SWAP1 SWAP2 AND DUP2 MSTORE PUSH1 0x20 ADD PUSH2 0x9F JUMP JUMPDEST PUSH2 0x95 PUSH2 0x117 CALLDATASIZE PUSH1 0x4 PUSH2 0xA11 JUMP JUMPDEST PUSH1 0x4 PUSH1 0x20 MSTORE PUSH1 0x0 SWAP1 DUP2 MSTORE PUSH1 0x40 SWAP1 KECCAK256 SLOAD DUP2 JUMP JUMPDEST PUSH1 0x1 SLOAD PUSH2 0xF1 SWAP1 PUSH1 0x1 PUSH1 0x1 PUSH1 0xA0 SHL SUB AND DUP2 JUMP JUMPDEST PUSH2 0x14F PUSH2 0x14A CALLDATASIZE PUSH1 0x4 PUSH2 0xA33 JUMP JUMPDEST PUSH2 0x53B JUMP JUMPDEST STOP JUMPDEST PUSH2 0x164 PUSH2 0x15F CALLDATASIZE PUSH1 0x4 PUSH2 0x93D JUMP JUMPDEST PUSH2 0x61F JUMP JUMPDEST PUSH1 0x40 MLOAD PUSH2 0x9F SWAP6 SWAP5 SWAP4 SWAP3 SWAP2 SWAP1 PUSH2 0xA55 JUMP JUMPDEST PUSH1 0x1 SLOAD PUSH1 0x0 SWAP1 PUSH1 0x1 PUSH1 0x1 PUSH1 0xA0 SHL SUB AND CALLER EQ PUSH2 0x1C3 JUMPI PUSH1 0x40 MLOAD PUSH3 0x461BCD PUSH1 0xE5 SHL DUP2 MSTORE PUSH1 0x20 PUSH1 0x4 DUP3 ADD MSTORE PUSH1 0x9 PUSH1 0x24 DUP3 ADD MSTORE PUSH9 0x2737BA1037BBB732B9 PUSH1 0xB9 SHL PUSH1 0x44 DUP3 ADD MSTORE PUSH1 0x64 ADD JUMPDEST PUSH1 0x40 MLOAD DUP1 SWAP2 SUB SWAP1 REVERT JUMPDEST PUSH1 0x0 DUP1 SLOAD SWAP1 DUP2 SWAP1 DUP1 PUSH2 0x1D4 DUP4 PUSH2 0xABC JUMP JUMPDEST SWAP1 SWAP2 SSTORE POP POP PUSH1 0x0 DUP2 DUP2 MSTORE PUSH1 0x3 PUSH1 0x20 SWAP1 DUP2 MSTORE PUSH1 0x40 DUP1 DUP4 KECCAK256 DUP1 SLOAD PUSH1 0x1 PUSH1 0x1 PUSH1 0xA0 SHL SUB NOT AND PUSH1 0x1 PUSH1 0x1 PUSH1 0xA0 SHL SUB DUP12 AND SWAP1 DUP2 OR SWAP1 SWAP2 SSTORE DUP4 MSTORE PUSH1 0x4 SWAP1 SWAP2 MSTORE DUP2 KECCAK256 DUP1 SLOAD SWAP2 PUSH2 0x21B DUP4 PUSH2 0xABC JUMP JUMPDEST SWAP1 SWAP2 SSTORE POP POP PUSH1 0x40 DUP1 MLOAD PUSH1 0xA0 DUP2 ADD DUP3 MSTORE DUP7 DUP2 MSTORE PUSH1 0x20 DUP1 DUP3 ADD DUP8 SWAP1 MSTORE TIMESTAMP DUP3 DUP5 ADD MSTORE PUSH1 0x0 PUSH1 0x60 DUP4 ADD DUP2 SWAP1 MSTORE PUSH1 0x80 DUP4 ADD DUP8 SWAP1 MSTORE DUP5 DUP2 MSTORE PUSH1 0x2 SWAP1 SWAP2 MSTORE SWAP2 SWAP1 SWAP2 KECCAK256 DUP2 MLOAD DUP2 SWAP1 PUSH2 0x264 SWAP1 DUP3 PUSH2 0xB5E JUMP JUMPDEST POP PUSH1 0x20 DUP3 ADD MLOAD PUSH1 0x1 DUP3 ADD SWAP1 PUSH2 0x279 SWAP1 DUP3 PUSH2 0xB5E JUMP JUMPDEST POP PUSH1 0x40 DUP3 ADD MLOAD PUSH1 0x2 DUP3 ADD SSTORE PUSH1 0x60 DUP3 ADD MLOAD PUSH1 0x3 DUP3 ADD SSTORE PUSH1 0x80 DUP3 ADD MLOAD PUSH1 0x4 DUP3 ADD SWAP1 PUSH2 0x2A2 SWAP1 DUP3 PUSH2 0xB5E JUMP JUMPDEST POP POP PUSH1 0x40 MLOAD DUP3 SWAP2 POP PUSH1 0x1 PUSH1 0x1 PUSH1 0xA0 SHL SUB DUP9 AND SWAP1 PUSH1 0x0 SWAP1 PUSH32 0xDDF252AD1BE2C89B69C2B068FC378DAA952BA7F163C4A11628F55A4DF523B3EF SWAP1 DUP3 SWAP1 LOG4 DUP1 PUSH32 0x2E241EB9612C5FD37B216F3EE5F372CAC286B893D2F71E5AD535841CD9E5DA68 DUP7 DUP7 PUSH1 0x40 MLOAD PUSH2 0x30F SWAP3 SWAP2 SWAP1 PUSH2 0xC1E JUMP JUMPDEST PUSH1 0x40 MLOAD DUP1 SWAP2 SUB SWAP1 LOG2 SWAP6 SWAP5 POP POP POP POP POP JUMP JUMPDEST PUSH2 0x352 PUSH1 0x40 MLOAD DUP1 PUSH1 0xA0 ADD PUSH1 0x40 MSTORE DUP1 PUSH1 0x60 DUP2 MSTORE PUSH1 0x20 ADD PUSH1 0x60 DUP2 MSTORE PUSH1 0x20 ADD PUSH1 0x0 DUP2 MSTORE PUSH1 0x20 ADD PUSH1 0x0 DUP2 MSTORE PUSH1 0x20 ADD PUSH1 0x60 DUP2 MSTORE POP SWAP1 JUMP JUMPDEST PUSH1 0x0 DUP3 DUP2 MSTORE PUSH1 0x2 PUSH1 0x20 MSTORE PUSH1 0x40 SWAP1 DUP2 SWAP1 KECCAK256 DUP2 MLOAD PUSH1 0xA0 DUP2 ADD SWAP1 SWAP3 MSTORE DUP1 SLOAD DUP3 SWAP1 DUP3 SWAP1 PUSH2 0x37A SWAP1 PUSH2 0xAD5 JUMP JUMPDEST DUP1 PUSH1 0x1F ADD PUSH1 0x20 DUP1 SWAP2 DIV MUL PUSH1 0x20 ADD PUSH1 0x40 MLOAD SWAP1 DUP2 ADD PUSH1 0x40 MSTORE DUP1 SWAP3 SWAP2 SWAP1 DUP2 DUP2 MSTORE PUSH1 0x20 ADD DUP3 DUP1 SLOAD PUSH2 0x3A6 SWAP1 PUSH2 0xAD5 JUMP JUMPDEST DUP1 ISZERO PUSH2 0x3F3 JUMPI DUP1 PUSH1 0x1F LT PUSH2 0x3C8 JUMPI PUSH2 0x100 DUP1 DUP4 SLOAD DIV MUL DUP4 MSTORE SWAP2 PUSH1 0x20 ADD SWAP2 PUSH2 0x3F3 JUMP JUMPDEST DUP3 ADD SWAP2 SWAP1 PUSH1 0x0 MSTORE PUSH1 0x20 PUSH1 0x0 KECCAK256 SWAP1 JUMPDEST DUP2 SLOAD DUP2 MSTORE SWAP1 PUSH1 0x1 ADD SWAP1 PUSH1 0x20 ADD DUP1 DUP4 GT PUSH2 0x3D6 JUMPI DUP3 SWAP1 SUB PUSH1 0x1F AND DUP3 ADD SWAP2 JUMPDEST POP POP POP POP POP DUP2 MSTORE PUSH1 0x20 ADD PUSH1 0x1 DUP3 ADD DUP1 SLOAD PUSH2 0x40C SWAP1 PUSH2 0xAD5 JUMP JUMPDEST DUP1 PUSH1 0x1F ADD PUSH1 0x20 DUP1 SWAP2 DIV MUL PUSH1 0x20 ADD PUSH1 0x40 MLOAD SWAP1 DUP2 ADD PUSH1 0x40 MSTORE DUP1 SWAP3 SWAP2 SWAP1 DUP2 DUP2 MSTORE PUSH1 0x20 ADD DUP3 DUP1 SLOAD PUSH2 0x438 SWAP1 PUSH2 0xAD5 JUMP JUMPDEST DUP1 ISZERO PUSH2 0x485 JUMPI DUP1 PUSH1 0x1F LT PUSH2 0x45A JUMPI PUSH2 0x100 DUP1 DUP4 SLOAD DIV MUL DUP4 MSTORE SWAP2 PUSH1 0x20 ADD SWAP2 PUSH2 0x485 JUMP JUMPDEST DUP3 ADD SWAP2 SWAP1 PUSH1 0x0 MSTORE PUSH1 0x20 PUSH1 0x0 KECCAK256 SWAP1 JUMPDEST DUP2 SLOAD DUP2 MSTORE SWAP1 PUSH1 0x1 ADD SWAP1 PUSH1 0x20 ADD DUP1 DUP4 GT PUSH2 0x468 JUMPI DUP3 SWAP1 SUB PUSH1 0x1F AND DUP3 ADD SWAP2 JUMPDEST POP POP POP POP POP DUP2 MSTORE PUSH1 0x20 ADD PUSH1 0x2 DUP3 ADD SLOAD DUP2 MSTORE PUSH1 0x20 ADD PUSH1 0x3 DUP3 ADD SLOAD DUP2 MSTORE PUSH1 0x20 ADD PUSH1 0x4 DUP3 ADD DUP1 SLOAD PUSH2 0x4B2 SWAP1 PUSH2 0xAD5 JUMP JUMPDEST DUP1 PUSH1 0x1F ADD PUSH1 0x20 DUP1 SWAP2 DIV MUL PUSH1 0x20 ADD PUSH1 0x40 MLOAD SWAP1 DUP2 ADD PUSH1 0x40 MSTORE DUP1 SWAP3 SWAP2 SWAP1 DUP2 DUP2 MSTORE PUSH1 0x20 ADD DUP3 DUP1 SLOAD PUSH2 0x4DE SWAP1 PUSH2 0xAD5 JUMP JUMPDEST DUP1 ISZERO PUSH2 0x52B JUMPI DUP1 PUSH1 0x1F LT PUSH2 0x500 JUMPI PUSH2 0x100 DUP1 DUP4 SLOAD DIV MUL DUP4 MSTORE SWAP2 PUSH1 0x20 ADD SWAP2 PUSH2 0x52B JUMP JUMPDEST DUP3 ADD SWAP2 SWAP1 PUSH1 0x0 MSTORE PUSH1 0x20 PUSH1 0x0 KECCAK256 SWAP1 JUMPDEST DUP2 SLOAD DUP2 MSTORE SWAP1 PUSH1 0x1 ADD SWAP1 PUSH1 0x20 ADD DUP1 DUP4 GT PUSH2 0x50E JUMPI DUP3 SWAP1 SUB PUSH1 0x1F AND DUP3 ADD SWAP2 JUMPDEST POP POP POP POP POP DUP2 MSTORE POP POP SWAP1 POP SWAP2 SWAP1 POP JUMP JUMPDEST PUSH1 0x0 DUP3 DUP2 MSTORE PUSH1 0x3 PUSH1 0x20 MSTORE PUSH1 0x40 SWAP1 KECCAK256 SLOAD PUSH1 0x1 PUSH1 0x1 PUSH1 0xA0 SHL SUB AND CALLER EQ DUP1 PUSH2 0x56A JUMPI POP PUSH1 0x1 SLOAD PUSH1 0x1 PUSH1 0x1 PUSH1 0xA0 SHL SUB AND CALLER EQ JUMPDEST PUSH2 0x5A7 JUMPI PUSH1 0x40 MLOAD PUSH3 0x461BCD PUSH1 0xE5 SHL DUP2 MSTORE PUSH1 0x20 PUSH1 0x4 DUP3 ADD MSTORE PUSH1 0xE PUSH1 0x24 DUP3 ADD MSTORE PUSH14 0x139BDD08185D5D1A1BDC9A5E9959 PUSH1 0x92 SHL PUSH1 0x44 DUP3 ADD MSTORE PUSH1 0x64 ADD PUSH2 0x1BA JUMP JUMPDEST PUSH1 0x0 DUP3 DUP2 MSTORE PUSH1 0x2 PUSH1 0x20 MSTORE PUSH1 0x40 DUP2 KECCAK256 PUSH1 0x3 ADD DUP1 SLOAD DUP4 SWAP3 SWAP1 PUSH2 0x5C8 SWAP1 DUP5 SWAP1 PUSH2 0xC43 JUMP JUMPDEST SWAP1 SWAP2 SSTORE POP POP PUSH1 0x0 DUP3 DUP2 MSTORE PUSH1 0x2 PUSH1 0x20 MSTORE PUSH1 0x40 SWAP1 DUP2 SWAP1 KECCAK256 PUSH1 0x3 ADD SLOAD SWAP1 MLOAD DUP4 SWAP2 PUSH32 0x2804993A562D1D387DCA549DCDFD29D14B9629AE3B70CE0B696BD6E0D926A03D SWAP2 PUSH2 0x613 SWAP2 DUP2 MSTORE PUSH1 0x20 ADD SWAP1 JUMP JUMPDEST PUSH1 0x40 MLOAD DUP1 SWAP2 SUB SWAP1 LOG2 POP POP JUMP JUMPDEST PUSH1 0x2 PUSH1 0x20 MSTORE PUSH1 0x0 SWAP1 DUP2 MSTORE PUSH1 0x40 SWAP1 KECCAK256 DUP1 SLOAD DUP2 SWAP1 PUSH2 0x63A SWAP1 PUSH2 0xAD5 JUMP JUMPDEST DUP1 PUSH1 0x1F ADD PUSH1 0x20 DUP1 SWAP2 DIV MUL PUSH1 0x20 ADD PUSH1 0x40 MLOAD SWAP1 DUP2 ADD PUSH1 0x40 MSTORE DUP1 SWAP3 SWAP2 SWAP1 DUP2 DUP2 MSTORE PUSH1 0x20 ADD DUP3 DUP1 SLOAD PUSH2 0x666 SWAP1 PUSH2 0xAD5 JUMP JUMPDEST DUP1 ISZERO PUSH2 0x6B3 JUMPI DUP1 PUSH1 0x1F LT PUSH2 0x688 JUMPI PUSH2 0x100 DUP1 DUP4 SLOAD DIV MUL DUP4 MSTORE SWAP2 PUSH1 0x20 ADD SWAP2 PUSH2 0x6B3 JUMP JUMPDEST DUP3 ADD SWAP2 SWAP1 PUSH1 0x0 MSTORE PUSH1 0x20 PUSH1 0x0 KECCAK256 SWAP1 JUMPDEST DUP2 SLOAD DUP2 MSTORE SWAP1 PUSH1 0x1 ADD SWAP1 PUSH1 0x20 ADD DUP1 DUP4 GT PUSH2 0x696 JUMPI DUP3 SWAP1 SUB PUSH1 0x1F AND DUP3 ADD SWAP2 JUMPDEST POP POP POP POP POP SWAP1 DUP1 PUSH1 0x1 ADD DUP1 SLOAD PUSH2 0x6C8 SWAP1 PUSH2 0xAD5 JUMP JUMPDEST DUP1 PUSH1 0x1F ADD PUSH1 0x20 DUP1 SWAP2 DIV MUL PUSH1 0x20 ADD PUSH1 0x40 MLOAD SWAP1 DUP2 ADD PUSH1 0x40 MSTORE DUP1 SWAP3 SWAP2 SWAP1 DUP2 DUP2 MSTORE PUSH1 0x20 ADD DUP3 DUP1 SLOAD PUSH2 0x6F4 SWAP1 PUSH2 0xAD5 JUMP JUMPDEST DUP1 ISZERO PUSH2 0x741 JUMPI DUP1 PUSH1 0x1F LT PUSH2 0x716 JUMPI PUSH2 0x100 DUP1 DUP4 SLOAD DIV MUL DUP4 MSTORE SWAP2 PUSH1 0x20 ADD SWAP2 PUSH2 0x741 JUMP JUMPDEST DUP3 ADD SWAP2 SWAP1 PUSH1 0x0 MSTORE PUSH1 0x20 PUSH1 0x0 KECCAK256 SWAP1 JUMPDEST DUP2 SLOAD DUP2 MSTORE SWAP1 PUSH1 0x1 ADD SWAP1 PUSH1 0x20 ADD DUP1 DUP4 GT PUSH2 0x724 JUMPI DUP3 SWAP1 SUB PUSH1 0x1F AND DUP3 ADD SWAP2 JUMPDEST POP POP POP POP POP SWAP1 DUP1 PUSH1 0x2 ADD SLOAD SWAP1 DUP1 PUSH1 0x3 ADD SLOAD SWAP1 DUP1 PUSH1 0x4 ADD DUP1 SLOAD PUSH2 0x762 SWAP1 PUSH2 0xAD5 JUMP JUMPDEST DUP1 PUSH1 0x1F ADD PUSH1 0x20 DUP1 SWAP2 DIV MUL PUSH1 0x20 ADD PUSH1 0x40 MLOAD SWAP1 DUP2 ADD PUSH1 0x40 MSTORE DUP1 SWAP3 SWAP2 SWAP1 DUP2 DUP2 MSTORE PUSH1 0x20 ADD DUP3 DUP1 SLOAD PUSH2 0x78E SWAP1 PUSH2 0xAD5 JUMP JUMPDEST DUP1 ISZERO PUSH2 0x7DB JUMPI DUP1 PUSH1 0x1F LT PUSH2 0x7B0 JUMPI PUSH2 0x100 DUP1 DUP4 SLOAD DIV MUL DUP4 MSTORE SWAP2 PUSH1 0x20 ADD SWAP2 PUSH2 0x7DB JUMP JUMPDEST DUP3 ADD SWAP2 SWAP1 PUSH1 0x0 MSTORE PUSH1 0x20 PUSH1 0x0 KECCAK256 SWAP1 JUMPDEST DUP2 SLOAD DUP2 MSTORE SWAP1 PUSH1 0x1 ADD SWAP1 PUSH1 0x20 ADD DUP1 DUP4 GT PUSH2 0x7BE JUMPI DUP3 SWAP1 SUB PUSH1 0x1F AND DUP3 ADD SWAP2 JUMPDEST POP POP POP POP POP SWAP1 POP DUP6 JUMP JUMPDEST DUP1 CALLDATALOAD PUSH1 0x1 PUSH1 0x1 PUSH1 0xA0 SHL SUB DUP2 AND DUP2 EQ PUSH2 0x7FC JUMPI PUSH1 0x0 DUP1 REVERT JUMPDEST SWAP2 SWAP1 POP JUMP JUMPDEST PUSH4 0x4E487B71 PUSH1 0xE0 SHL PUSH1 0x0 MSTORE PUSH1 0x41 PUSH1 0x4 MSTORE PUSH1 0x24 PUSH1 0x0 REVERT JUMPDEST PUSH1 0x0 DUP3 PUSH1 0x1F DUP4 ADD SLT PUSH2 0x828 JUMPI PUSH1 0x0 DUP1 REVERT JUMPDEST DUP2 CALLDATALOAD PUSH8 0xFFFFFFFFFFFFFFFF DUP1 DUP3 GT ISZERO PUSH2 0x843 JUMPI PUSH2 0x843 PUSH2 0x801 JUMP JUMPDEST PUSH1 0x40 MLOAD PUSH1 0x1F DUP4 ADD PUSH1 0x1F NOT SWAP1 DUP2 AND PUSH1 0x3F ADD AND DUP2 ADD SWAP1 DUP3 DUP3 GT DUP2 DUP4 LT OR ISZERO PUSH2 0x86B JUMPI PUSH2 0x86B PUSH2 0x801 JUMP JUMPDEST DUP2 PUSH1 0x40 MSTORE DUP4 DUP2 MSTORE DUP7 PUSH1 0x20 DUP6 DUP9 ADD ADD GT ISZERO PUSH2 0x884 JUMPI PUSH1 0x0 DUP1 REVERT JUMPDEST DUP4 PUSH1 0x20 DUP8 ADD PUSH1 0x20 DUP4 ADD CALLDATACOPY PUSH1 0x0 PUSH1 0x20 DUP6 DUP4 ADD ADD MSTORE DUP1 SWAP5 POP POP POP POP POP SWAP3 SWAP2 POP POP JUMP JUMPDEST PUSH1 0x0 DUP1 PUSH1 0x0 DUP1 PUSH1 0x80 DUP6 DUP8 SUB SLT ISZERO PUSH2 0x8BA JUMPI PUSH1 0x0 DUP1 REVERT JUMPDEST PUSH2 0x8C3 DUP6 PUSH2 0x7E5 JUMP JUMPDEST SWAP4 POP PUSH1 0x20 DUP6 ADD CALLDATALOAD PUSH8 0xFFFFFFFFFFFFFFFF DUP1 DUP3 GT ISZERO PUSH2 0x8E0 JUMPI PUSH1 0x0 DUP1 REVERT JUMPDEST PUSH2 0x8EC DUP9 DUP4 DUP10 ADD PUSH2 0x817 JUMP JUMPDEST SWAP5 POP PUSH1 0x40 DUP8 ADD CALLDATALOAD SWAP2 POP DUP1 DUP3 GT ISZERO PUSH2 0x902 JUMPI PUSH1 0x0 DUP1 REVERT JUMPDEST PUSH2 0x90E DUP9 DUP4 DUP10 ADD PUSH2 0x817 JUMP JUMPDEST SWAP4 POP PUSH1 0x60 DUP8 ADD CALLDATALOAD SWAP2 POP DUP1 DUP3 GT ISZERO PUSH2 0x924 JUMPI PUSH1 0x0 DUP1 REVERT JUMPDEST POP PUSH2 0x931 DUP8 DUP3 DUP9 ADD PUSH2 0x817 JUMP JUMPDEST SWAP2 POP POP SWAP3 SWAP6 SWAP2 SWAP5 POP SWAP3 POP JUMP JUMPDEST PUSH1 0x0 PUSH1 0x20 DUP3 DUP5 SUB SLT ISZERO PUSH2 0x94F JUMPI PUSH1 0x0 DUP1 REVERT JUMPDEST POP CALLDATALOAD SWAP2 SWAP1 POP JUMP JUMPDEST PUSH1 0x0 DUP2 MLOAD DUP1 DUP5 MSTORE PUSH1 0x0 JUMPDEST DUP2 DUP2 LT ISZERO PUSH2 0x97C JUMPI PUSH1 0x20 DUP2 DUP6 ADD DUP2 ADD MLOAD DUP7 DUP4 ADD DUP3 ADD MSTORE ADD PUSH2 0x960 JUMP JUMPDEST POP PUSH1 0x0 PUSH1 0x20 DUP3 DUP7 ADD ADD MSTORE PUSH1 0x20 PUSH1 0x1F NOT PUSH1 0x1F DUP4 ADD AND DUP6 ADD ADD SWAP2 POP POP SWAP3 SWAP2 POP POP JUMP JUMPDEST PUSH1 0x20 DUP2 MSTORE PUSH1 0x0 DUP3 MLOAD PUSH1 0xA0 PUSH1 0x20 DUP5 ADD MSTORE PUSH2 0x9B8 PUSH1 0xC0 DUP5 ADD DUP3 PUSH2 0x956 JUMP JUMPDEST SWAP1 POP PUSH1 0x20 DUP5 ADD MLOAD PUSH1 0x1F NOT DUP1 DUP6 DUP5 SUB ADD PUSH1 0x40 DUP7 ADD MSTORE PUSH2 0x9D6 DUP4 DUP4 PUSH2 0x956 JUMP JUMPDEST SWAP3 POP PUSH1 0x40 DUP7 ADD MLOAD PUSH1 0x60 DUP7 ADD MSTORE PUSH1 0x60 DUP7 ADD MLOAD PUSH1 0x80 DUP7 ADD MSTORE PUSH1 0x80 DUP7 ADD MLOAD SWAP2 POP DUP1 DUP6 DUP5 SUB ADD PUSH1 0xA0 DUP7 ADD MSTORE POP PUSH2 0xA08 DUP3 DUP3 PUSH2 0x956 JUMP JUMPDEST SWAP6 SWAP5 POP POP POP POP POP JUMP JUMPDEST PUSH1 0x0 PUSH1 0x20 DUP3 DUP5 SUB SLT ISZERO PUSH2 0xA23 JUMPI PUSH1 0x0 DUP1 REVERT JUMPDEST PUSH2 0xA2C DUP3 PUSH2 0x7E5 JUMP JUMPDEST SWAP4 SWAP3 POP POP POP JUMP JUMPDEST PUSH1 0x0 DUP1 PUSH1 0x40 DUP4 DUP6 SUB SLT ISZERO PUSH2 0xA46 JUMPI PUSH1 0x0 DUP1 REVERT JUMPDEST POP POP DUP1 CALLDATALOAD SWAP3 PUSH1 0x20 SWAP1 SWAP2 ADD CALLDATALOAD SWAP2 POP JUMP JUMPDEST PUSH1 0xA0 DUP2 MSTORE PUSH1 0x0 PUSH2 0xA68 PUSH1 0xA0 DUP4 ADD DUP9 PUSH2 0x956 JUMP JUMPDEST DUP3 DUP2 SUB PUSH1 0x20 DUP5 ADD MSTORE PUSH2 0xA7A DUP2 DUP9 PUSH2 0x956 JUMP JUMPDEST SWAP1 POP DUP6 PUSH1 0x40 DUP5 ADD MSTORE DUP5 PUSH1 0x60 DUP5 ADD MSTORE DUP3 DUP2 SUB PUSH1 0x80 DUP5 ADD MSTORE PUSH2 0xA9A DUP2 DUP6 PUSH2 0x956 JUMP JUMPDEST SWAP9 SWAP8 POP POP POP POP POP POP POP POP JUMP JUMPDEST PUSH4 0x4E487B71 PUSH1 0xE0 SHL PUSH1 0x0 MSTORE PUSH1 0x11 PUSH1 0x4 MSTORE PUSH1 0x24 PUSH1 0x0 REVERT JUMPDEST PUSH1 0x0 PUSH1 0x1 DUP3 ADD PUSH2 0xACE JUMPI PUSH2 0xACE PUSH2 0xAA6 JUMP JUMPDEST POP PUSH1 0x1 ADD SWAP1 JUMP JUMPDEST PUSH1 0x1 DUP2 DUP2 SHR SWAP1 DUP3 AND DUP1 PUSH2 0xAE9 JUMPI PUSH1 0x7F DUP3 AND SWAP2 POP JUMPDEST PUSH1 0x20 DUP3 LT DUP2 SUB PUSH2 0xB09 JUMPI PUSH4 0x4E487B71 PUSH1 0xE0 SHL PUSH1 0x0 MSTORE PUSH1 0x22 PUSH1 0x4 MSTORE PUSH1 0x24 PUSH1 0x0 REVERT JUMPDEST POP SWAP2 SWAP1 POP JUMP JUMPDEST PUSH1 0x1F DUP3 GT ISZERO PUSH2 0xB59 JUMPI PUSH1 0x0 DUP2 DUP2 MSTORE PUSH1 0x20 DUP2 KECCAK256 PUSH1 0x1F DUP6 ADD PUSH1 0x5 SHR DUP2 ADD PUSH1 0x20 DUP7 LT ISZERO PUSH2 0xB36 JUMPI POP DUP1 JUMPDEST PUSH1 0x1F DUP6 ADD PUSH1 0x5 SHR DUP3 ADD SWAP2 POP JUMPDEST DUP2 DUP2 LT ISZERO PUSH2 0xB55 JUMPI DUP3 DUP2 SSTORE PUSH1 0x1 ADD PUSH2 0xB42 JUMP JUMPDEST POP POP POP JUMPDEST POP POP POP JUMP JUMPDEST DUP2 MLOAD PUSH8 0xFFFFFFFFFFFFFFFF DUP2 GT ISZERO PUSH2 0xB78 JUMPI PUSH2 0xB78 PUSH2 0x801 JUMP JUMPDEST PUSH2 0xB8C DUP2 PUSH2 0xB86 DUP5 SLOAD PUSH2 0xAD5 JUMP JUMPDEST DUP5 PUSH2 0xB0F JUMP JUMPDEST PUSH1 0x20 DUP1 PUSH1 0x1F DUP4 GT PUSH1 0x1 DUP2 EQ PUSH2 0xBC1 JUMPI PUSH1 0x0 DUP5 ISZERO PUSH2 0xBA9 JUMPI POP DUP6 DUP4 ADD MLOAD JUMPDEST PUSH1 0x0 NOT PUSH1 0x3 DUP7 SWAP1 SHL SHR NOT AND PUSH1 0x1 DUP6 SWAP1 SHL OR DUP6 SSTORE PUSH2 0xB55 JUMP JUMPDEST PUSH1 0x0 DUP6 DUP2 MSTORE PUSH1 0x20 DUP2 KECCAK256 PUSH1 0x1F NOT DUP7 AND SWAP2 JUMPDEST DUP3 DUP2 LT ISZERO PUSH2 0xBF0 JUMPI DUP9 DUP7 ADD MLOAD DUP3 SSTORE SWAP5 DUP5 ADD SWAP5 PUSH1 0x1 SWAP1 SWAP2 ADD SWAP1 DUP5 ADD PUSH2 0xBD1 JUMP JUMPDEST POP DUP6 DUP3 LT ISZERO PUSH2 0xC0E JUMPI DUP8 DUP6 ADD MLOAD PUSH1 0x0 NOT PUSH1 0x3 DUP9 SWAP1 SHL PUSH1 0xF8 AND SHR NOT AND DUP2 SSTORE JUMPDEST POP POP POP POP POP PUSH1 0x1 SWAP1 DUP2 SHL ADD SWAP1 SSTORE POP JUMP JUMPDEST PUSH1 0x40 DUP2 MSTORE PUSH1 0x0 PUSH2 0xC31 PUSH1 0x40 DUP4 ADD DUP6 PUSH2 0x956 JUMP JUMPDEST DUP3 DUP2 SUB PUSH1 0x20 DUP5 ADD MSTORE PUSH2 0xA08 DUP2 DUP6 PUSH2 0x956 JUMP JUMPDEST DUP1 DUP3 ADD DUP1 DUP3 GT ISZERO PUSH2 0xC56 JUMPI PUSH2 0xC56 PUSH2 0xAA6 JUMP JUMPDEST SWAP3 SWAP2 POP POP JUMP INVALID LOG2 PUSH5 0x6970667358 0x22 SLT KECCAK256 0xAC BLOCKHASH 0xAB SELFDESTRUCT SAR 0xD0 DUP3 EQ 0xF7 SSTORE INVALID SWAP16 0xBE ISZERO SAR JUMPI PUSH31 0x55CE8045E5831E1CCDF0DC517FBBE864736F6C634300081300330000000000 "},"methodIdentifiers":{"balanceOf(address)":"70a08231","birthCertificates(uint256)":"e13b3462","getBirthCertificate(uint256)":"48b326fb","growAgent(uint256,uint256)":"c1c5b265","mintAgent(address,string,string,string)":"29966eee","owner()":"8da5cb5b","ownerOf(uint256)":"6352211e"}}}}}